:10000000832BFF3FFF3FFF3FFF00030E8301A9004B
:100010000A08AA008A018B1C1128A1010130A20044
:100020008B100C1C1C28A10A0E18142890108F018C
:1000300010103F3090000C102A088A00290E83000F
:10004000FF0E7F0E0900831203132230FC00F8011B
:10005000F901FA01FB01FC03031959280310FB0CF9
:10006000FA0CF90CF80CF30CF20CF10CF00C031C6C
:100070002B28FC0303194B287408F807750803188C
:10008000750FF90776080318760FFA077708031833
:10009000770FFB072F287408F80775080318750FEA
:1000A000F90776080318760FFA0777080318770F11
:1000B000FB07080083120313B903B9033908003C96
:1000C00003186728B9030000000000005E28000044
:1000D00000000000000000000800A030831203139D
:1000E000F0000F30F100F201F30108008312031356
:1000F000FB01FA01F901F801A001730DF80D740874
:10010000F8027508031C750FF9027608031C760FB8
:10011000FA027708031C770FFB020001031C013071
:10012000A002F30D0730FC00730DF80DF90DFA0D68
:10013000FB0DA00D7408731CAF28F8027508031C92
:10014000750FF9027608031C760FFA027708031C74
:10015000770FFB020001031C0130A002C028F80742
:1001600075080318750FF90776080318760FFA0754
:1001700077080318770FFB07000103180130A00769
:10018000F30DFC0B9428720DF80DF90DFA0DFB0D13
:10019000A00D7408731CDE28F8027508031C750F87
:1001A000F9027608031C760FFA027708031C770F12
:1001B000FB020001031C0130A002EF28F8077508BC
:1001C0000318750FF90776080318760FFA077708F2
:1001D0000318770FFB07000103180130A007F20D89
:1001E0000730FC00720DF80DF90DFA0DFB0DA00D96
:1001F0007408721C0D29F8027508031C750FF902AA
:100200007608031C760FFA027708031C770FFB02AF
:100210000001031C0130A0021E29F807750803180D
:10022000750FF90776080318760FFA077708031891
:10023000770FFB07000103180130A007F20DFC0B3C
:10024000F228710DF80DF90DFA0DFB0DA00D7408D3
:10025000721C3C29F8027508031C750FF902760818
:10026000031C760FFA027708031C770FFB020001CC
:10027000031C0130A0024D29F80775080318750FFB
:10028000F90776080318760FFA0777080318770F2F
:10029000FB07000103180130A007F10D0730FC0037
:1002A000710DF80DF90DFA0DFB0DA00D7408711C00
:1002B0006B29F8027508031C750FF9027608031CF8
:1002C000760FFA027708031C770FFB020001031C6C
:1002D0000130A0027C29F80775080318750FF9078B
:1002E00076080318760FFA0777080318770FFB07CD
:1002F000000103180130A007F10DFC0B5029700D0F
:10030000F80DF90DFA0DFB0DA00D7408711C9A295A
:10031000F8027508031C750FF9027608031C760FA6
:10032000FA027708031C770FFB020001031C01305F
:10033000A002AB29F80775080318750FF9077608AE
:100340000318760FFA0777080318770FFB070001E9
:1003500003180130A007F00D0730FC00700DF80DF8
:10036000F90DFA0DFB0DA00D7408701CC929F802D7
:100370007508031C750FF9027608031C760FFA0244
:100380007708031C770FFB020001031C0130A00259
:10039000DA29F80775080318750FF90776080318A6
:1003A000760FFA0777080318770FFB070001031889
:1003B0000130A007F00DFC0BAE297018ED29740870
:1003C000F80775080318750FF90776080318760FF4
:1003D000FA0777080318770FFB0708008312031347
:1003E000F801F9011030FC00710DF80DF90D7408D9
:1003F000F8027508031C750FF9020318062A740821
:10040000F80775080318750FF9070310F00DF10DC3
:10041000FC0BF42908006D20E830F4000330F500EF
:10042000F601F70123207008B5007108B6007208C4
:10043000B7007308B8002D08F4002E08F500F60187
:10044000F70176207008B5007108B6007208B70091
:100450007308B8007008F5007108F6007208F7001C
:100460007308F800F80CF70CF60CF50CF813F80C00
:10047000F70CF60CF50CF8137508F0007608F1008F
:100480007708F2007808F300F30CF20CF10CF00C92
:10049000F3137008B1007108B2006D202F08F4004A
:1004A0003008F500F601F70123203108F900320881
:1004B000FA00FB01FC010330F8007908F4007A0827
:1004C000F5007B08F6007C08F700780803196F2A0E
:1004D000F40DF50DF60DF70D7410FF3E662A76202B
:1004E0007008B5007108B6007208B7007308B8004C
:1004F0000A30F4000030F5003108F0003208F10055
:10050000EE217008B1007108B20000307102031DC5
:100510008B2A0330700203188E2ADB2A28088400F5
:100520003808003C031D9E2A3708003C031D9E2A04
:100530003608003C031D9E2A3508003C0318D92AC2
:100540002708800432080319B52AB301B40100302A
:100550003402031DAD2A320833020318B52AB9014B
:100560005A20B30A0319B40AA72A3108B9005A203D
:100570002508800532080319CD2AB301B4010030E3
:100580003402031DC52A320833020318CD2AB901EB
:100590005A20B30A0319B40ABF2A3108B9005A20F5
:1005A0000130B502031CB602031CB702031CB802DB
:1005B000902A250880050800E83083120313AD0057
:1005C0000330AE003230AF000030B0000B22080024
:1005D0008312031324088A00230882000800831270
:1005E00003132B08A8002C08F1000130F00071085B
:1005F0000319FE2AF00D7010FF3EF82A7008A700BC
:10060000F0097008A50080302B0784007008800571
:100610008413700880050800831203138601A1016A
:10062000A2010800083083120313210203181B2BB8
:10063000DC220430860608302102031C202B0C2308
:100640000800013083120313210203182A2BDC2235
:100650000430860601302102031C2F2B0C230800D6
:1006600014308312031321020318392BDC220430C7
:10067000860614302102031C3E2B0C230800E822BE
:100680008A110A128000840AA30A0319A40AF0033B
:10069000031D3F2B0800313083160313860083129D
:1006A000860183168501831285018B170B170B16A4
:1006B00083160C14073083129F0047308316810085
:1006C00083128F018E010330FD00FD0B652B10108E
:1006D0003F3090000630AB000330AC00EF228610B4
:1006E00006118611A20108000C30831203132102A7
:1006F00003187D2BDC22043086060C302102031CFB
:10070000822B0C23080083120313A101A2014B23A7
:100710002208031DB52B8611061101302102031C8E
:10072000AF2BA101A601053026020318A42B02302D
:1007300086064130FC00EE30FD00FD0B9D2BFC0BCE
:100740009D2B0000A60A932B0D30FC00FB30FD0012
:10075000FD0BA82BFC0BA82B000000008610063018
:10076000FD00FD0BB12B0000630022080319CC2B08
:10077000061ABD2B861ABD2B2123061AC22B861EF4
:10078000C22B1223061EC72B861AC72B7423061EE4
:10079000CC2B861ECC2B3023882BCD2BFF3FFF3F4D
:02400E002A2165
:00000001FF
